:030000000201A951
:0C01A900787FE4F6D8FD75810C0201F0AF
:0802A40002080000020B00003B
:10002000E4F589758C97758ABBD28CD2A9D2AF22A0
:06000300E4F5B2F5B122A4
:10000E00759A5075D74175D6FD758E1475AF01D2A0
:02001E00AF220F
:09029B00C2AC759B33539AFD229D
:0300430002003088
:10003000C0E0E59A30E006859B0A539AFED0E03294
:1002350012000EE4FFFE120020120003AD0ABD619C
:100245000C750B00750C01D2B4C2B58023BD620CD0
:10025500750B00750C02C2B2D2B38014BD6408756B
:100265000B00750C048009BD630C750B00750C0340
:100275007E007F018013BD6510E4F50BF50CC2B25D
:10028500C2B3C2B4C2B5FE7F01EF64014E7002F580
:060295000AE4FEFF80A652
:03000B00020046AA
:10004600C0E0C0D0E50C6401450B70480509E50920
:1000560070020508D39428E508648094805004D281
:10006600B2C2B3D3E5099428E508648094804011B0
:10007600D3E509942DE508648094805004C2B2C289
:10008600B3D3E509942DE50864809480400675088D
:1000960000750900E50C6402450B70480509E50981
:1000A60070020508D39428E508648094805004C241
:1000B600B4D2B5D3E5099428E5086480948040114C
:1000C600D3E509942DE508648094805004C2B4C237
:1000D600B5D3E509942DE50864809480400675083B
:1000E60000750900E50C6403450B70500509E50928
:1000F60070020508D39405E508648094805008C210
:10010600B2D2B3D2B4C2B5D3E5099405E50864808A
:1001160094804015D3E5099407E5086480948050DF
:1001260008C2B2C2B3C2B4C2B5D3E5099407E508A2
:10013600648094804006750800750900E50C640427
:10014600450B70500509E50970020508D39405E5CD
:1001560008648094805008D2B2C2B3C2B4D2B5D378
:10016600E5099405E508648094804015D3E5099473
:1001760007E508648094805008C2B2C2B3C2B4C214
:10018600B5D3E5099407E5086480948040067508B0
:1001960000750900E50C450B7004F508F509D0D08B
:0301A600D0E03274
:1001B500020235E493A3F8E493A34003F68001F229
:1001C50008DFF48029E493A3F85407240CC8C3334B
:1001D500C4540F4420C8834004F456800146F6DF1A
:1001E500E4800B01020408102040809002A4E47E04
:1001F500019360BCA3FF543F30E509541FFEE4930F
:10020500A360010ECF54C025E060A840B8E493A3D5
:10021500FAE493A3F8E493A3C8C582C8CAC583CA00
:10022500F0A3C8C582C8CAC583CADFE9DEE780BEB8
:0102AC000051
:00000001FF
